{"contracts/AccountManager.sol":{"AccountManager":{"abi":[{"anonymous":false,"inputs":[{"indexed":false,"internalType":"address","name":"userAddress","type":"address"},{"indexed":false,"internalType":"string","name":"name","type":"string"}],"name":"NewAccount","type":"event"},{"inputs":[{"internalType":"string","name":"_newName","type":"string"}],"name":"ChangeName","outputs":[],"stateMutability":"nonpayable","type":"function"},{"inputs":[{"internalType":"string","name":"_name","type":"string"}],"name":"SignUp","outputs":[],"stateMutability":"nonpayable","type":"function"},{"inputs":[{"internalType":"address","name":"","type":"address"}],"name":"accountAddressMap","outputs":[{"internalType":"address","name":"accountAddress","type":"address"},{"internalType":"string","name":"accountName","type":"string"},{"internalType":"bool","name":"valid","type":"bool"}],"stateMutability":"view","type":"function"},{"inputs":[{"internalType":"uint256","name":"","type":"uint256"}],"name":"accounts","outputs":[{"internalType":"address","name":"accountAddress","type":"address"},{"internalType":"string","name":"accountName","type":"string"},{"internalType":"bool","name":"valid","type":"bool"}],"stateMutability":"view","type":"function"},{"inputs":[{"internalType":"string","name":"","type":"string"}],"name":"nameToAddressMap","outputs":[{"internalType":"address","name":"","type":"address"}],"stateMutability":"view","type":"function"}],"evm":{"bytecode":{"linkReferences":{},"object":"608060405234801561001057600080fd5b50610dbf806100206000396000f3fe608060405234801561001057600080fd5b50600436106100575760003560e01c80636c3f9eff1461005c5780639f9eac671461008e578063a38fdfb8146100aa578063f2a40db8146100c6578063f51508cf146100f8575b600080fd5b61007660048036038101906100719190610737565b610128565b6040516100859392919061081e565b60405180910390f35b6100a860048036038101906100a39190610991565b610207565b005b6100c460048036038101906100bf9190610991565b6102b8565b005b6100e060048036038101906100db9190610a10565b61050a565b6040516100ef9392919061081e565b60405180910390f35b610112600480360381019061010d9190610991565b6105f9565b60405161011f9190610a3d565b60405180910390f35b60006020528060005260406000206000915090508060000160009054906101000a900473ffffffffffffffffffffffffffffffffffffffff169080600101805461017190610a87565b80601f016020809104026020016040519081016040528092919081815260200182805461019d90610a87565b80156101ea5780601f106101bf576101008083540402835291602001916101ea565b820191906000526020600020905b8154815290600101906020018083116101cd57829003601f168201915b5050505050908060020160009054906101000a900460ff16905083565b600115156000803373ffffffffffffffffffffffffffffffffffffffff1673ffffffffffffffffffffffffffffffffffffffff16815260200190815260200160002060020160009054906101000a900460ff1615151461026657600080fd5b806000803373ffffffffffffffffffffffffffffffffffffffff1673ffffffffffffffffffffffffffffffffffffffff16815260200190815260200160002060010190816102b49190610c64565b5050565b600015156000803373ffffffffffffffffffffffffffffffffffffffff1673ffffffffffffffffffffffffffffffffffffffff16815260200190815260200160002060020160009054906101000a900460ff1615151461031757600080fd5b600073ffffffffffffffffffffffffffffffffffffffff1660018260405161033f9190610d72565b908152602001604051809103902060009054906101000a900473ffffffffffffffffffffffffffffffffffffffff1673ffffffffffffffffffffffffffffffffffffffff161461038e57600080fd5b600061039a8233610642565b9050600281908060018154018082558091505060019003906000526020600020906003020160009091909190915060008201518160000160006101000a81548173ffffffffffffffffffffffffffffffffffffffff021916908373ffffffffffffffffffffffffffffffffffffffff16021790555060208201518160010190816104249190610c64565b5060408201518160020160006101000a81548160ff0219169083151502179055505050806000803373ffffffffffffffffffffffffffffffffffffffff1673ffffffffffffffffffffffffffffffffffffffff16815260200190815260200160002060008201518160000160006101000a81548173ffffffffffffffffffffffffffffffffffffffff021916908373ffffffffffffffffffffffffffffffffffffffff16021790555060208201518160010190816104e29190610c64565b5060408201518160020160006101000a81548160ff0219169083151502179055509050505050565b6002818154811061051a57600080fd5b90600052602060002090600302016000915090508060000160009054906101000a900473ffffffffffffffffffffffffffffffffffffffff169080600101805461056390610a87565b80601f016020809104026020016040519081016040528092919081815260200182805461058f90610a87565b80156105dc5780601f106105b1576101008083540402835291602001916105dc565b820191906000526020600020905b8154815290600101906020018083116105bf57829003601f168201915b5050505050908060020160009054906101000a900460ff16905083565b6001818051602081018201805184825260208301602085012081835280955050505050506000915054906101000a900473ffffffffffffffffffffffffffffffffffffffff1681565b61064a61068c565b600060405180606001604052808473ffffffffffffffffffffffffffffffffffffffff1681526020018581526020016001151581525090508091505092915050565b6040518060600160405280600073ffffffffffffffffffffffffffffffffffffffff168152602001606081526020016000151581525090565b6000604051905090565b600080fd5b600080fd5b600073ffffffffffffffffffffffffffffffffffffffff82169050919050565b6000610704826106d9565b9050919050565b610714816106f9565b811461071f57600080fd5b50565b6000813590506107318161070b565b92915050565b60006020828403121561074d5761074c6106cf565b5b600061075b84828501610722565b91505092915050565b61076d816106f9565b82525050565b600081519050919050565b600082825260208201905092915050565b60005b838110156107ad578082015181840152602081019050610792565b60008484015250505050565b6000601f19601f8301169050919050565b60006107d582610773565b6107df818561077e565b93506107ef81856020860161078f565b6107f8816107b9565b840191505092915050565b60008115159050919050565b61081881610803565b82525050565b60006060820190506108336000830186610764565b818103602083015261084581856107ca565b9050610854604083018461080f565b949350505050565b600080fd5b600080fd5b7f4e487b7100000000000000000000000000000000000000000000000000000000600052604160045260246000fd5b61089e826107b9565b810181811067ffffffffffffffff821117156108bd576108bc610866565b5b80604052505050565b60006108d06106c5565b90506108dc8282610895565b919050565b600067ffffffffffffffff8211156108fc576108fb610866565b5b610905826107b9565b9050602081019050919050565b82818337600083830152505050565b600061093461092f846108e1565b6108c6565b9050828152602081018484840111156109505761094f610861565b5b61095b848285610912565b509392505050565b600082601f8301126109785761097761085c565b5b8135610988848260208601610921565b91505092915050565b6000602082840312156109a7576109a66106cf565b5b600082013567ffffffffffffffff8111156109c5576109c46106d4565b5b6109d184828501610963565b91505092915050565b6000819050919050565b6109ed816109da565b81146109f857600080fd5b50565b600081359050610a0a816109e4565b92915050565b600060208284031215610a2657610a256106cf565b5b6000610a34848285016109fb565b91505092915050565b6000602082019050610a526000830184610764565b92915050565b7f4e487b7100000000000000000000000000000000000000000000000000000000600052602260045260246000fd5b60006002820490506001821680610a9f57607f821691505b602082108103610ab257610ab1610a58565b5b50919050565b60008190508160005260206000209050919050565b60006020601f8301049050919050565b600082821b905092915050565b600060088302610b1a7fffffffffffffffffffffffffffffffffffffffffffffffffffffffffffffffff82610add565b610b248683610add565b95508019841693508086168417925050509392505050565b6000819050919050565b6000610b61610b5c610b57846109da565b610b3c565b6109da565b9050919050565b6000819050919050565b610b7b83610b46565b610b8f610b8782610b68565b848454610aea565b825550505050565b600090565b610ba4610b97565b610baf818484610b72565b505050565b5b81811015610bd357610bc8600082610b9c565b600181019050610bb5565b5050565b601f821115610c1857610be981610ab8565b610bf284610acd565b81016020851015610c01578190505b610c15610c0d85610acd565b830182610bb4565b50505b505050565b600082821c905092915050565b6000610c3b60001984600802610c1d565b1980831691505092915050565b6000610c548383610c2a565b9150826002028217905092915050565b610c6d82610773565b67ffffffffffffffff811115610c8657610c85610866565b5b610c908254610a87565b610c9b828285610bd7565b600060209050601f831160018114610cce5760008415610cbc578287015190505b610cc68582610c48565b865550610d2e565b601f198416610cdc86610ab8565b60005b82811015610d0457848901518255600182019150602085019450602081019050610cdf565b86831015610d215784890151610d1d601f891682610c2a565b8355505b6001600288020188555050505b505050505050565b600081905092915050565b6000610d4c82610773565b610d568185610d36565b9350610d6681856020860161078f565b80840191505092915050565b6000610d7e8284610d41565b91508190509291505056fea2646970667358221220d64c94ffdda5b7809e9f885334acd16dfc5be95aa7bb306dd9d942352b34221664736f6c63430008110033","opcodes":"PUSH1 0x80 PUSH1 0x40 MSTORE CALLVALUE DUP1 ISZERO PUSH2 0x10 JUMPI PUSH1 0x0 DUP1 REVERT JUMPDEST POP PUSH2 0xDBF DUP1 PUSH2 0x20 PUSH1 0x0 CODECOPY PUSH1 0x0 RETURN INVALID PUSH1 0x80 PUSH1 0x40 MSTORE CALLVALUE DUP1 ISZERO PUSH2 0x10 JUMPI PUSH1 0x0 DUP1 REVERT JUMPDEST POP PUSH1 0x4 CALLDATASIZE LT PUSH2 0x57 JUMPI PUSH1 0x0 CALLDATALOAD PUSH1 0xE0 SHR DUP1 PUSH4 0x6C3F9EFF EQ PUSH2 0x5C JUMPI DUP1 PUSH4 0x9F9EAC67 EQ PUSH2 0x8E JUMPI DUP1 PUSH4 0xA38FDFB8 EQ PUSH2 0xAA JUMPI DUP1 PUSH4 0xF2A40DB8 EQ PUSH2 0xC6 JUMPI DUP1 PUSH4 0xF51508CF EQ PUSH2 0xF8 JUMPI JUMPDEST PUSH1 0x0 DUP1 REVERT JUMPDEST PUSH2 0x76 PUSH1 0x4 DUP1 CALLDATASIZE SUB DUP2 ADD SWAP1 PUSH2 0x71 SWAP2 SWAP1 PUSH2 0x737 JUMP JUMPDEST PUSH2 0x128 JUMP JUMPDEST PUSH1 0x40 MLOAD PUSH2 0x85 SWAP4 SWAP3 SWAP2 SWAP1 PUSH2 0x81E JUMP JUMPDEST PUSH1 0x40 MLOAD DUP1 SWAP2 SUB SWAP1 RETURN JUMPDEST PUSH2 0xA8 PUSH1 0x4 DUP1 CALLDATASIZE SUB DUP2 ADD SWAP1 PUSH2 0xA3 SWAP2 SWAP1 PUSH2 0x991 JUMP JUMPDEST PUSH2 0x207 JUMP JUMPDEST STOP JUMPDEST PUSH2 0xC4 PUSH1 0x4 DUP1 CALLDATASIZE SUB DUP2 ADD SWAP1 PUSH2 0xBF SWAP2 SWAP1 PUSH2 0x991 JUMP JUMPDEST PUSH2 0x2B8 JUMP JUMPDEST STOP JUMPDEST PUSH2 0xE0 PUSH1 0x4 DUP1 CALLDATASIZE SUB DUP2 ADD SWAP1 PUSH2 0xDB SWAP2 SWAP1 PUSH2 0xA10 JUMP JUMPDEST PUSH2 0x50A JUMP JUMPDEST PUSH1 0x40 MLOAD PUSH2 0xEF SWAP4 SWAP3 SWAP2 SWAP1 PUSH2 0x81E JUMP JUMPDEST PUSH1 0x40 MLOAD DUP1 SWAP2 SUB SWAP1 RETURN JUMPDEST PUSH2 0x112 PUSH1 0x4 DUP1 CALLDATASIZE SUB DUP2 ADD SWAP1 PUSH2 0x10D SWAP2 SWAP1 PUSH2 0x991 JUMP JUMPDEST PUSH2 0x5F9 JUMP JUMPDEST PUSH1 0x40 MLOAD PUSH2 0x11F SWAP2 SWAP1 PUSH2 0xA3D JUMP JUMPDEST PUSH1 0x40 MLOAD DUP1 SWAP2 SUB SWAP1 RETURN JUMPDEST PUSH1 0x0 PUSH1 0x20 MSTORE DUP1 PUSH1 0x0 MSTORE PUSH1 0x40 PUSH1 0x0 KECCAK256 PUSH1 0x0 SWAP2 POP SWAP1 POP DUP1 PUSH1 0x0 ADD PUSH1 0x0 SWAP1 SLOAD SWAP1 PUSH2 0x100 EXP SWAP1 DIV PUSH20 0xFFFFFFFFFFFFFFFFFFFFFFFFFFFFFFFFFFFFFFFF AND SWAP1 DUP1 PUSH1 0x1 ADD DUP1 SLOAD PUSH2 0x171 SWAP1 PUSH2 0xA87 JUMP JUMPDEST DUP1 PUSH1 0x1F ADD PUSH1 0x20 DUP1 SWAP2 DIV MUL PUSH1 0x20 ADD PUSH1 0x40 MLOAD SWAP1 DUP2 ADD PUSH1 0x40 MSTORE DUP1 SWAP3 SWAP2 SWAP1 DUP2 DUP2 MSTORE PUSH1 0x20 ADD DUP3 DUP1 SLOAD PUSH2 0x19D SWAP1 PUSH2 0xA87 JUMP JUMPDEST DUP1 ISZERO PUSH2 0x1EA JUMPI DUP1 PUSH1 0x1F LT PUSH2 0x1BF JUMPI PUSH2 0x100 DUP1 DUP4 SLOAD DIV MUL DUP4 MSTORE SWAP2 PUSH1 0x20 ADD SWAP2 PUSH2 0x1EA JUMP JUMPDEST DUP3 ADD SWAP2 SWAP1 PUSH1 0x0 MSTORE PUSH1 0x20 PUSH1 0x0 KECCAK256 SWAP1 JUMPDEST DUP2 SLOAD DUP2 MSTORE SWAP1 PUSH1 0x1 ADD SWAP1 PUSH1 0x20 ADD DUP1 DUP4 GT PUSH2 0x1CD JUMPI DUP3 SWAP1 SUB PUSH1 0x1F AND DUP3 ADD SWAP2 JUMPDEST POP POP POP POP POP SWAP1 DUP1 PUSH1 0x2 ADD PUSH1 0x0 SWAP1 SLOAD SWAP1 PUSH2 0x100 EXP SWAP1 DIV PUSH1 0xFF AND SWAP1 POP DUP4 JUMP JUMPDEST PUSH1 0x1 ISZERO ISZERO PUSH1 0x0 DUP1 CALLER PUSH20 0xFFFFFFFFFFFFFFFFFFFFFFFFFFFFFFFFFFFFFFFF AND PUSH20 0xFFFFFFFFFFFFFFFFFFFFFFFFFFFFFFFFFFFFFFFF AND DUP2 MSTORE PUSH1 0x20 ADD SWAP1 DUP2 MSTORE PUSH1 0x20 ADD PUSH1 0x0 KECCAK256 PUSH1 0x2 ADD PUSH1 0x0 SWAP1 SLOAD SWAP1 PUSH2 0x100 EXP SWAP1 DIV PUSH1 0xFF AND ISZERO ISZERO EQ PUSH2 0x266 JUMPI PUSH1 0x0 DUP1 REVERT JUMPDEST DUP1 PUSH1 0x0 DUP1 CALLER PUSH20 0xFFFFFFFFFFFFFFFFFFFFFFFFFFFFFFFFFFFFFFFF AND PUSH20 0xFFFFFFFFFFFFFFFFFFFFFFFFFFFFFFFFFFFFFFFF AND DUP2 MSTORE PUSH1 0x20 ADD SWAP1 DUP2 MSTORE PUSH1 0x20 ADD PUSH1 0x0 KECCAK256 PUSH1 0x1 ADD SWAP1 DUP2 PUSH2 0x2B4 SWAP2 SWAP1 PUSH2 0xC64 JUMP JUMPDEST POP POP JUMP JUMPDEST PUSH1 0x0 ISZERO ISZERO PUSH1 0x0 DUP1 CALLER PUSH20 0xFFFFFFFFFFFFFFFFFFFFFFFFFFFFFFFFFFFFFFFF AND PUSH20 0xFFFFFFFFFFFFFFFFFFFFFFFFFFFFFFFFFFFFFFFF AND DUP2 MSTORE PUSH1 0x20 ADD SWAP1 DUP2 MSTORE PUSH1 0x20 ADD PUSH1 0x0 KECCAK256 PUSH1 0x2 ADD PUSH1 0x0 SWAP1 SLOAD SWAP1 PUSH2 0x100 EXP SWAP1 DIV PUSH1 0xFF AND ISZERO ISZERO EQ PUSH2 0x317 JUMPI PUSH1 0x0 DUP1 REVERT JUMPDEST PUSH1 0x0 PUSH20 0xFFFFFFFFFFFFFFFFFFFFFFFFFFFFFFFFFFFFFFFF AND PUSH1 0x1 DUP3 PUSH1 0x40 MLOAD PUSH2 0x33F SWAP2 SWAP1 PUSH2 0xD72 JUMP JUMPDEST SWAP1 DUP2 MSTORE PUSH1 0x20 ADD PUSH1 0x40 MLOAD DUP1 SWAP2 SUB SWAP1 KECCAK256 PUSH1 0x0 SWAP1 SLOAD SWAP1 PUSH2 0x100 EXP SWAP1 DIV PUSH20 0xFFFFFFFFFFFFFFFFFFFFFFFFFFFFFFFFFFFFFFFF AND PUSH20 0xFFFFFFFFFFFFFFFFFFFFFFFFFFFFFFFFFFFFFFFF AND EQ PUSH2 0x38E JUMPI PUSH1 0x0 DUP1 REVERT JUMPDEST PUSH1 0x0 PUSH2 0x39A DUP3 CALLER PUSH2 0x642 JUMP JUMPDEST SWAP1 POP PUSH1 0x2 DUP2 SWAP1 DUP1 PUSH1 0x1 DUP2 SLOAD ADD DUP1 DUP3 SSTORE DUP1 SWAP2 POP POP PUSH1 0x1 SWAP1 SUB SWAP1 PUSH1 0x0 MSTORE PUSH1 0x20 PUSH1 0x0 KECCAK256 SWAP1 PUSH1 0x3 MUL ADD PUSH1 0x0 SWAP1 SWAP2 SWAP1 SWAP2 SWAP1 SWAP2 POP PUSH1 0x0 DUP3 ADD MLOAD DUP2 PUSH1 0x0 ADD PUSH1 0x0 PUSH2 0x100 EXP DUP2 SLOAD DUP2 PUSH20 0xFFFFFFFFFFFFFFFFFFFFFFFFFFFFFFFFFFFFFFFF MUL NOT AND SWAP1 DUP4 PUSH20 0xFFFFFFFFFFFFFFFFFFFFFFFFFFFFFFFFFFFFFFFF AND MUL OR SWAP1 SSTORE POP PUSH1 0x20 DUP3 ADD MLOAD DUP2 PUSH1 0x1 ADD SWAP1 DUP2 PUSH2 0x424 SWAP2 SWAP1 PUSH2 0xC64 JUMP JUMPDEST POP PUSH1 0x40 DUP3 ADD MLOAD DUP2 PUSH1 0x2 ADD PUSH1 0x0 PUSH2 0x100 EXP DUP2 SLOAD DUP2 PUSH1 0xFF MUL NOT AND SWAP1 DUP4 ISZERO ISZERO MUL OR SWAP1 SSTORE POP POP POP DUP1 PUSH1 0x0 DUP1 CALLER PUSH20 0xFFFFFFFFFFFFFFFFFFFFFFFFFFFFFFFFFFFFFFFF AND PUSH20 0xFFFFFFFFFFFFFFFFFFFFFFFFFFFFFFFFFFFFFFFF AND DUP2 MSTORE PUSH1 0x20 ADD SWAP1 DUP2 MSTORE PUSH1 0x20 ADD PUSH1 0x0 KECCAK256 PUSH1 0x0 DUP3 ADD MLOAD DUP2 PUSH1 0x0 ADD PUSH1 0x0 PUSH2 0x100 EXP DUP2 SLOAD DUP2 PUSH20 0xFFFFFFFFFFFFFFFFFFFFFFFFFFFFFFFFFFFFFFFF MUL NOT AND SWAP1 DUP4 PUSH20 0xFFFFFFFFFFFFFFFFFFFFFFFFFFFFFFFFFFFFFFFF AND MUL OR SWAP1 SSTORE POP PUSH1 0x20 DUP3 ADD MLOAD DUP2 PUSH1 0x1 ADD SWAP1 DUP2 PUSH2 0x4E2 SWAP2 SWAP1 PUSH2 0xC64 JUMP JUMPDEST POP PUSH1 0x40 DUP3 ADD MLOAD DUP2 PUSH1 0x2 ADD PUSH1 0x0 PUSH2 0x100 EXP DUP2 SLOAD DUP2 PUSH1 0xFF MUL NOT AND SWAP1 DUP4 ISZERO ISZERO MUL OR SWAP1 SSTORE POP SWAP1 POP POP POP POP JUMP JUMPDEST PUSH1 0x2 DUP2 DUP2 SLOAD DUP2 LT PUSH2 0x51A JUMPI PUSH1 0x0 DUP1 REVERT JUMPDEST SWAP1 PUSH1 0x0 MSTORE PUSH1 0x20 PUSH1 0x0 KECCAK256 SWAP1 PUSH1 0x3 MUL ADD PUSH1 0x0 SWAP2 POP SWAP1 POP DUP1 PUSH1 0x0 ADD PUSH1 0x0 SWAP1 SLOAD SWAP1 PUSH2 0x100 EXP SWAP1 DIV PUSH20 0xFFFFFFFFFFFFFFFFFFFFFFFFFFFFFFFFFFFFFFFF AND SWAP1 DUP1 PUSH1 0x1 ADD DUP1 SLOAD PUSH2 0x563 SWAP1 PUSH2 0xA87 JUMP JUMPDEST DUP1 PUSH1 0x1F ADD PUSH1 0x20 DUP1 SWAP2 DIV MUL PUSH1 0x20 ADD PUSH1 0x40 MLOAD SWAP1 DUP2 ADD PUSH1 0x40 MSTORE DUP1 SWAP3 SWAP2 SWAP1 DUP2 DUP2 MSTORE PUSH1 0x20 ADD DUP3 DUP1 SLOAD PUSH2 0x58F SWAP1 PUSH2 0xA87 JUMP JUMPDEST DUP1 ISZERO PUSH2 0x5DC JUMPI DUP1 PUSH1 0x1F LT PUSH2 0x5B1 JUMPI PUSH2 0x100 DUP1 DUP4 SLOAD DIV MUL DUP4 MSTORE SWAP2 PUSH1 0x20 ADD SWAP2 PUSH2 0x5DC JUMP JUMPDEST DUP3 ADD SWAP2 SWAP1 PUSH1 0x0 MSTORE PUSH1 0x20 PUSH1 0x0 KECCAK256 SWAP1 JUMPDEST DUP2 SLOAD DUP2 MSTORE SWAP1 PUSH1 0x1 ADD SWAP1 PUSH1 0x20 ADD DUP1 DUP4 GT PUSH2 0x5BF JUMPI DUP3 SWAP1 SUB PUSH1 0x1F AND DUP3 ADD SWAP2 JUMPDEST POP POP POP POP POP SWAP1 DUP1 PUSH1 0x2 ADD PUSH1 0x0 SWAP1 SLOAD SWAP1 PUSH2 0x100 EXP SWAP1 DIV PUSH1 0xFF AND SWAP1 POP DUP4 JUMP JUMPDEST PUSH1 0x1 DUP2 DUP1 MLOAD PUSH1 0x20 DUP2 ADD DUP3 ADD DUP1 MLOAD DUP5 DUP3 MSTORE PUSH1 0x20 DUP4 ADD PUSH1 0x20 DUP6 ADD KECCAK256 DUP2 DUP4 MSTORE DUP1 SWAP6 POP POP POP POP POP POP PUSH1 0x0 SWAP2 POP SLOAD SWAP1 PUSH2 0x100 EXP SWAP1 DIV PUSH20 0xFFFFFFFFFFFFFFFFFFFFFFFFFFFFFFFFFFFFFFFF AND DUP2 JUMP JUMPDEST PUSH2 0x64A PUSH2 0x68C JUMP JUMPDEST PUSH1 0x0 PUSH1 0x40 MLOAD DUP1 PUSH1 0x60 ADD PUSH1 0x40 MSTORE DUP1 DUP5 PUSH20 0xFFFFFFFFFFFFFFFFFFFFFFFFFFFFFFFFFFFFFFFF AND DUP2 MSTORE PUSH1 0x20 ADD DUP6 DUP2 MSTORE PUSH1 0x20 ADD PUSH1 0x1 ISZERO ISZERO DUP2 MSTORE POP SWAP1 POP DUP1 SWAP2 POP POP SWAP3 SWAP2 POP POP JUMP JUMPDEST PUSH1 0x40 MLOAD DUP1 PUSH1 0x60 ADD PUSH1 0x40 MSTORE DUP1 PUSH1 0x0 PUSH20 0xFFFFFFFFFFFFFFFFFFFFFFFFFFFFFFFFFFFFFFFF AND DUP2 MSTORE PUSH1 0x20 ADD PUSH1 0x60 DUP2 MSTORE PUSH1 0x20 ADD PUSH1 0x0 ISZERO ISZERO DUP2 MSTORE POP SWAP1 JUMP JUMPDEST PUSH1 0x0 PUSH1 0x40 MLOAD SWAP1 POP SWAP1 JUMP JUMPDEST PUSH1 0x0 DUP1 REVERT JUMPDEST PUSH1 0x0 DUP1 REVERT JUMPDEST PUSH1 0x0 PUSH20 0xFFFFFFFFFFFFFFFFFFFFFFFFFFFFFFFFFFFFFFFF DUP3 AND SWAP1 POP SWAP2 SWAP1 POP JUMP JUMPDEST PUSH1 0x0 PUSH2 0x704 DUP3 PUSH2 0x6D9 JUMP JUMPDEST SWAP1 POP SWAP2 SWAP1 POP JUMP JUMPDEST PUSH2 0x714 DUP2 PUSH2 0x6F9 JUMP JUMPDEST DUP2 EQ PUSH2 0x71F JUMPI PUSH1 0x0 DUP1 REVERT JUMPDEST POP JUMP JUMPDEST PUSH1 0x0 DUP2 CALLDATALOAD SWAP1 POP PUSH2 0x731 DUP2 PUSH2 0x70B JUMP JUMPDEST SWAP3 SWAP2 POP POP JUMP JUMPDEST PUSH1 0x0 PUSH1 0x20 DUP3 DUP5 SUB SLT ISZERO PUSH2 0x74D JUMPI PUSH2 0x74C PUSH2 0x6CF JUMP JUMPDEST JUMPDEST PUSH1 0x0 PUSH2 0x75B DUP5 DUP3 DUP6 ADD PUSH2 0x722 JUMP JUMPDEST SWAP2 POP POP SWAP3 SWAP2 POP POP JUMP JUMPDEST PUSH2 0x76D DUP2 PUSH2 0x6F9 JUMP JUMPDEST DUP3 MSTORE POP POP JUMP JUMPDEST PUSH1 0x0 DUP2 MLOAD SWAP1 POP SWAP2 SWAP1 POP JUMP JUMPDEST PUSH1 0x0 DUP3 DUP3 MSTORE PUSH1 0x20 DUP3 ADD SWAP1 POP SWAP3 SWAP2 POP POP JUMP JUMPDEST PUSH1 0x0 JUMPDEST DUP4 DUP2 LT ISZERO PUSH2 0x7AD JUMPI DUP1 DUP3 ADD MLOAD DUP2 DUP5 ADD MSTORE PUSH1 0x20 DUP2 ADD SWAP1 POP PUSH2 0x792 JUMP JUMPDEST PUSH1 0x0 DUP5 DUP5 ADD MSTORE POP POP POP POP JUMP JUMPDEST PUSH1 0x0 PUSH1 0x1F NOT PUSH1 0x1F DUP4 ADD AND SWAP1 POP SWAP2 SWAP1 POP JUMP JUMPDEST PUSH1 0x0 PUSH2 0x7D5 DUP3 PUSH2 0x773 JUMP JUMPDEST PUSH2 0x7DF DUP2 DUP6 PUSH2 0x77E JUMP JUMPDEST SWAP4 POP PUSH2 0x7EF DUP2 DUP6 PUSH1 0x20 DUP7 ADD PUSH2 0x78F JUMP JUMPDEST PUSH2 0x7F8 DUP2 PUSH2 0x7B9 JUMP JUMPDEST DUP5 ADD SWAP2 POP POP SWAP3 SWAP2 POP POP JUMP JUMPDEST PUSH1 0x0 DUP2 ISZERO ISZERO SWAP1 POP SWAP2 SWAP1 POP JUMP JUMPDEST PUSH2 0x818 DUP2 PUSH2 0x803 JUMP JUMPDEST DUP3 MSTORE POP POP JUMP JUMPDEST PUSH1 0x0 PUSH1 0x60 DUP3 ADD SWAP1 POP PUSH2 0x833 PUSH1 0x0 DUP4 ADD DUP7 PUSH2 0x764 JUMP JUMPDEST DUP2 DUP2 SUB PUSH1 0x20 DUP4 ADD MSTORE PUSH2 0x845 DUP2 DUP6 PUSH2 0x7CA JUMP JUMPDEST SWAP1 POP PUSH2 0x854 PUSH1 0x40 DUP4 ADD DUP5 PUSH2 0x80F JUMP JUMPDEST SWAP5 SWAP4 POP POP POP POP JUMP JUMPDEST PUSH1 0x0 DUP1 REVERT JUMPDEST PUSH1 0x0 DUP1 REVERT JUMPDEST PUSH32 0x4E487B7100000000000000000000000000000000000000000000000000000000 PUSH1 0x0 MSTORE PUSH1 0x41 PUSH1 0x4 MSTORE PUSH1 0x24 PUSH1 0x0 REVERT JUMPDEST PUSH2 0x89E DUP3 PUSH2 0x7B9 JUMP JUMPDEST DUP2 ADD DUP2 DUP2 LT PUSH8 0xFFFFFFFFFFFFFFFF DUP3 GT OR ISZERO PUSH2 0x8BD JUMPI PUSH2 0x8BC PUSH2 0x866 JUMP JUMPDEST JUMPDEST DUP1 PUSH1 0x40 MSTORE POP POP POP JUMP JUMPDEST PUSH1 0x0 PUSH2 0x8D0 PUSH2 0x6C5 JUMP JUMPDEST SWAP1 POP PUSH2 0x8DC DUP3 DUP3 PUSH2 0x895 JUMP JUMPDEST SWAP2 SWAP1 POP JUMP JUMPDEST PUSH1 0x0 PUSH8 0xFFFFFFFFFFFFFFFF DUP3 GT ISZERO PUSH2 0x8FC JUMPI PUSH2 0x8FB PUSH2 0x866 JUMP JUMPDEST JUMPDEST PUSH2 0x905 DUP3 PUSH2 0x7B9 JUMP JUMPDEST SWAP1 POP PUSH1 0x20 DUP2 ADD SWAP1 POP SWAP2 SWAP1 POP JUMP JUMPDEST DUP3 DUP2 DUP4 CALLDATACOPY PUSH1 0x0 DUP4 DUP4 ADD MSTORE POP POP POP JUMP JUMPDEST PUSH1 0x0 PUSH2 0x934 PUSH2 0x92F DUP5 PUSH2 0x8E1 JUMP JUMPDEST PUSH2 0x8C6 JUMP JUMPDEST SWAP1 POP DUP3 DUP2 MSTORE PUSH1 0x20 DUP2 ADD DUP5 DUP5 DUP5 ADD GT ISZERO PUSH2 0x950 JUMPI PUSH2 0x94F PUSH2 0x861 JUMP JUMPDEST JUMPDEST PUSH2 0x95B DUP5 DUP3 DUP6 PUSH2 0x912 JUMP JUMPDEST POP SWAP4 SWAP3 POP POP POP JUMP JUMPDEST PUSH1 0x0 DUP3 PUSH1 0x1F DUP4 ADD SLT PUSH2 0x978 JUMPI PUSH2 0x977 PUSH2 0x85C JUMP JUMPDEST JUMPDEST DUP2 CALLDATALOAD PUSH2 0x988 DUP5 DUP3 PUSH1 0x20 DUP7 ADD PUSH2 0x921 JUMP JUMPDEST SWAP2 POP POP SWAP3 SWAP2 POP POP JUMP JUMPDEST PUSH1 0x0 PUSH1 0x20 DUP3 DUP5 SUB SLT ISZERO PUSH2 0x9A7 JUMPI PUSH2 0x9A6 PUSH2 0x6CF JUMP JUMPDEST JUMPDEST PUSH1 0x0 DUP3 ADD CALLDATALOAD PUSH8 0xFFFFFFFFFFFFFFFF DUP2 GT ISZERO PUSH2 0x9C5 JUMPI PUSH2 0x9C4 PUSH2 0x6D4 JUMP JUMPDEST JUMPDEST PUSH2 0x9D1 DUP5 DUP3 DUP6 ADD PUSH2 0x963 JUMP JUMPDEST SWAP2 POP POP SWAP3 SWAP2 POP POP JUMP JUMPDEST PUSH1 0x0 DUP2 SWAP1 POP SWAP2 SWAP1 POP JUMP JUMPDEST PUSH2 0x9ED DUP2 PUSH2 0x9DA JUMP JUMPDEST DUP2 EQ PUSH2 0x9F8 JUMPI PUSH1 0x0 DUP1 REVERT JUMPDEST POP JUMP JUMPDEST PUSH1 0x0 DUP2 CALLDATALOAD SWAP1 POP PUSH2 0xA0A DUP2 PUSH2 0x9E4 JUMP JUMPDEST SWAP3 SWAP2 POP POP JUMP JUMPDEST PUSH1 0x0 PUSH1 0x20 DUP3 DUP5 SUB SLT ISZERO PUSH2 0xA26 JUMPI PUSH2 0xA25 PUSH2 0x6CF JUMP JUMPDEST JUMPDEST PUSH1 0x0 PUSH2 0xA34 DUP5 DUP3 DUP6 ADD PUSH2 0x9FB JUMP JUMPDEST SWAP2 POP POP SWAP3 SWAP2 POP POP JUMP JUMPDEST PUSH1 0x0 PUSH1 0x20 DUP3 ADD SWAP1 POP PUSH2 0xA52 PUSH1 0x0 DUP4 ADD DUP5 PUSH2 0x764 JUMP JUMPDEST SWAP3 SWAP2 POP POP JUMP JUMPDEST PUSH32 0x4E487B7100000000000000000000000000000000000000000000000000000000 PUSH1 0x0 MSTORE PUSH1 0x22 PUSH1 0x4 MSTORE PUSH1 0x24 PUSH1 0x0 REVERT JUMPDEST PUSH1 0x0 PUSH1 0x2 DUP3 DIV SWAP1 POP PUSH1 0x1 DUP3 AND DUP1 PUSH2 0xA9F JUMPI PUSH1 0x7F DUP3 AND SWAP2 POP JUMPDEST PUSH1 0x20 DUP3 LT DUP2 SUB PUSH2 0xAB2 JUMPI PUSH2 0xAB1 PUSH2 0xA58 JUMP JUMPDEST JUMPDEST POP SWAP2 SWAP1 POP JUMP JUMPDEST PUSH1 0x0 DUP2 SWAP1 POP DUP2 PUSH1 0x0 MSTORE PUSH1 0x20 PUSH1 0x0 KECCAK256 SWAP1 POP SWAP2 SWAP1 POP JUMP JUMPDEST PUSH1 0x0 PUSH1 0x20 PUSH1 0x1F DUP4 ADD DIV SWAP1 POP SWAP2 SWAP1 POP JUMP JUMPDEST PUSH1 0x0 DUP3 DUP3 SHL SWAP1 POP SWAP3 SWAP2 POP POP JUMP JUMPDEST PUSH1 0x0 PUSH1 0x8 DUP4 MUL PUSH2 0xB1A PUSH32 0xFFFFFFFFFFFFFFFFFFFFFFFFFFFFFFFFFFFFFFFFFFFFFFFFFFFFFFFFFFFFFFFF DUP3 PUSH2 0xADD JUMP JUMPDEST PUSH2 0xB24 DUP7 DUP4 PUSH2 0xADD JUMP JUMPDEST SWAP6 POP DUP1 NOT DUP5 AND SWAP4 POP DUP1 DUP7 AND DUP5 OR SWAP3 POP POP POP SWAP4 SWAP3 POP POP POP JUMP JUMPDEST PUSH1 0x0 DUP2 SWAP1 POP SWAP2 SWAP1 POP JUMP JUMPDEST PUSH1 0x0 PUSH2 0xB61 PUSH2 0xB5C PUSH2 0xB57 DUP5 PUSH2 0x9DA JUMP JUMPDEST PUSH2 0xB3C JUMP JUMPDEST PUSH2 0x9DA JUMP JUMPDEST SWAP1 POP SWAP2 SWAP1 POP JUMP JUMPDEST PUSH1 0x0 DUP2 SWAP1 POP SWAP2 SWAP1 POP JUMP JUMPDEST PUSH2 0xB7B DUP4 PUSH2 0xB46 JUMP JUMPDEST PUSH2 0xB8F PUSH2 0xB87 DUP3 PUSH2 0xB68 JUMP JUMPDEST DUP5 DUP5 SLOAD PUSH2 0xAEA JUMP JUMPDEST DUP3 SSTORE POP POP POP POP JUMP JUMPDEST PUSH1 0x0 SWAP1 JUMP JUMPDEST PUSH2 0xBA4 PUSH2 0xB97 JUMP JUMPDEST PUSH2 0xBAF DUP2 DUP5 DUP5 PUSH2 0xB72 JUMP JUMPDEST POP POP POP JUMP JUMPDEST JUMPDEST DUP2 DUP2 LT ISZERO PUSH2 0xBD3 JUMPI PUSH2 0xBC8 PUSH1 0x0 DUP3 PUSH2 0xB9C JUMP JUMPDEST PUSH1 0x1 DUP2 ADD SWAP1 POP PUSH2 0xBB5 JUMP JUMPDEST POP POP JUMP JUMPDEST PUSH1 0x1F DUP3 GT ISZERO PUSH2 0xC18 JUMPI PUSH2 0xBE9 DUP2 PUSH2 0xAB8 JUMP JUMPDEST PUSH2 0xBF2 DUP5 PUSH2 0xACD JUMP JUMPDEST DUP2 ADD PUSH1 0x20 DUP6 LT ISZERO PUSH2 0xC01 JUMPI DUP2 SWAP1 POP JUMPDEST PUSH2 0xC15 PUSH2 0xC0D DUP6 PUSH2 0xACD JUMP JUMPDEST DUP4 ADD DUP3 PUSH2 0xBB4 JUMP JUMPDEST POP POP JUMPDEST POP POP POP JUMP JUMPDEST PUSH1 0x0 DUP3 DUP3 SHR SWAP1 POP SWAP3 SWAP2 POP POP JUMP JUMPDEST PUSH1 0x0 PUSH2 0xC3B PUSH1 0x0 NOT DUP5 PUSH1 0x8 MUL PUSH2 0xC1D JUMP JUMPDEST NOT DUP1 DUP4 AND SWAP2 POP POP SWAP3 SWAP2 POP POP JUMP JUMPDEST PUSH1 0x0 PUSH2 0xC54 DUP4 DUP4 PUSH2 0xC2A JUMP JUMPDEST SWAP2 POP DUP3 PUSH1 0x2 MUL DUP3 OR SWAP1 POP SWAP3 SWAP2 POP POP JUMP JUMPDEST PUSH2 0xC6D DUP3 PUSH2 0x773 JUMP JUMPDEST PUSH8 0xFFFFFFFFFFFFFFFF DUP2 GT ISZERO PUSH2 0xC86 JUMPI PUSH2 0xC85 PUSH2 0x866 JUMP JUMPDEST JUMPDEST PUSH2 0xC90 DUP3 SLOAD PUSH2 0xA87 JUMP JUMPDEST PUSH2 0xC9B DUP3 DUP3 DUP6 PUSH2 0xBD7 JUMP JUMPDEST PUSH1 0x0 PUSH1 0x20 SWAP1 POP PUSH1 0x1F DUP4 GT PUSH1 0x1 DUP2 EQ PUSH2 0xCCE JUMPI PUSH1 0x0 DUP5 ISZERO PUSH2 0xCBC JUMPI DUP3 DUP8 ADD MLOAD SWAP1 POP JUMPDEST PUSH2 0xCC6 DUP6 DUP3 PUSH2 0xC48 JUMP JUMPDEST DUP7 SSTORE POP PUSH2 0xD2E JUMP JUMPDEST PUSH1 0x1F NOT DUP5 AND PUSH2 0xCDC DUP7 PUSH2 0xAB8 JUMP JUMPDEST PUSH1 0x0 JUMPDEST DUP3 DUP2 LT ISZERO PUSH2 0xD04 JUMPI DUP5 DUP10 ADD MLOAD DUP3 SSTORE PUSH1 0x1 DUP3 ADD SWAP2 POP PUSH1 0x20 DUP6 ADD SWAP5 POP PUSH1 0x20 DUP2 ADD SWAP1 POP PUSH2 0xCDF JUMP JUMPDEST DUP7 DUP4 LT ISZERO PUSH2 0xD21 JUMPI DUP5 DUP10 ADD MLOAD PUSH2 0xD1D PUSH1 0x1F DUP10 AND DUP3 PUSH2 0xC2A JUMP JUMPDEST DUP4 SSTORE POP JUMPDEST PUSH1 0x1 PUSH1 0x2 DUP9 MUL ADD DUP9 SSTORE POP POP POP JUMPDEST POP POP POP POP POP POP JUMP JUMPDEST PUSH1 0x0 DUP2 SWAP1 POP SWAP3 SWAP2 POP POP JUMP JUMPDEST PUSH1 0x0 PUSH2 0xD4C DUP3 PUSH2 0x773 JUMP JUMPDEST PUSH2 0xD56 DUP2 DUP6 PUSH2 0xD36 JUMP JUMPDEST SWAP4 POP PUSH2 0xD66 DUP2 DUP6 PUSH1 0x20 DUP7 ADD PUSH2 0x78F JUMP JUMPDEST DUP1 DUP5 ADD SWAP2 POP POP SWAP3 SWAP2 POP POP JUMP JUMPDEST PUSH1 0x0 PUSH2 0xD7E DUP3 DUP5 PUSH2 0xD41 JUMP JUMPDEST SWAP2 POP DUP2 SWAP1 POP SWAP3 SWAP2 POP POP JUMP INVALID LOG2 PUSH5 0x6970667358 0x22 SLT KECCAK256 0xD6 0x4C SWAP5 SELFDESTRUCT 0xDD 0xA5 0xB7 DUP1 SWAP15 SWAP16 DUP9 MSTORE8 CALLVALUE 0xAC 0xD1 PUSH14 0xFC5BE95AA7BB306DD9D942352B34 0x22 AND PUSH5 0x736F6C6343 STOP ADDMOD GT STOP CALLER "},"methodIdentifiers":{"ChangeName(string)":"9f9eac67","SignUp(string)":"a38fdfb8","accountAddressMap(address)":"6c3f9eff","accounts(uint256)":"f2a40db8","nameToAddressMap(string)":"f51508cf"}}}}}