{
  "_format": "hh-sol-artifact-1",
  "contractName": "AccountManager",
  "sourceName": "contracts/AccountManager.sol",
  "abi": [
    {
      "anonymous": false,
      "inputs": [
        {
          "indexed": false,
          "internalType": "address",
          "name": "userAddress",
          "type": "address"
        },
        {
          "indexed": false,
          "internalType": "string",
          "name": "name",
          "type": "string"
        }
      ],
      "name": "NewAccount",
      "type": "event"
    },
    {
      "inputs": [
        {
          "internalType": "uint256",
          "name": "a",
          "type": "uint256"
        },
        {
          "internalType": "uint256",
          "name": "b",
          "type": "uint256"
        }
      ],
      "name": "AddNumbers",
      "outputs": [
        {
          "internalType": "uint256",
          "name": "",
          "type": "uint256"
        }
      ],
      "stateMutability": "pure",
      "type": "function"
    },
    {
      "inputs": [
        {
          "internalType": "string",
          "name": "_newName",
          "type": "string"
        }
      ],
      "name": "ChangeName",
      "outputs": [],
      "stateMutability": "nonpayable",
      "type": "function"
    },
    {
      "inputs": [],
      "name": "GetAccounts",
      "outputs": [
        {
          "components": [
            {
              "internalType": "address",
              "name": "accountAddress",
              "type": "address"
            },
            {
              "internalType": "string",
              "name": "accountName",
              "type": "string"
            },
            {
              "internalType": "bool",
              "name": "valid",
              "type": "bool"
            }
          ],
          "internalType": "struct AccountFactory.Account[]",
          "name": "",
          "type": "tuple[]"
        }
      ],
      "stateMutability": "view",
      "type": "function"
    },
    {
      "inputs": [
        {
          "internalType": "string",
          "name": "_name",
          "type": "string"
        }
      ],
      "name": "SignUp",
      "outputs": [],
      "stateMutability": "nonpayable",
      "type": "function"
    },
    {
      "inputs": [
        {
          "internalType": "address",
          "name": "",
          "type": "address"
        }
      ],
      "name": "accountAddressMap",
      "outputs": [
        {
          "internalType": "address",
          "name": "accountAddress",
          "type": "address"
        },
        {
          "internalType": "string",
          "name": "accountName",
          "type": "string"
        },
        {
          "internalType": "bool",
          "name": "valid",
          "type": "bool"
        }
      ],
      "stateMutability": "view",
      "type": "function"
    },
    {
      "inputs": [
        {
          "internalType": "uint256",
          "name": "",
          "type": "uint256"
        }
      ],
      "name": "accounts",
      "outputs": [
        {
          "internalType": "address",
          "name": "accountAddress",
          "type": "address"
        },
        {
          "internalType": "string",
          "name": "accountName",
          "type": "string"
        },
        {
          "internalType": "bool",
          "name": "valid",
          "type": "bool"
        }
      ],
      "stateMutability": "view",
      "type": "function"
    },
    {
      "inputs": [
        {
          "internalType": "string",
          "name": "",
          "type": "string"
        }
      ],
      "name": "nameToAddressMap",
      "outputs": [
        {
          "internalType": "address",
          "name": "",
          "type": "address"
        }
      ],
      "stateMutability": "view",
      "type": "function"
    }
  ],
  "bytecode": "0x608060405234801561001057600080fd5b50611214806100206000396000f3fe608060405234801561001057600080fd5b506004361061007d5760003560e01c8063a38fdfb81161005b578063a38fdfb814610100578063dc1a65a81461011c578063f2a40db81461013a578063f51508cf1461016c5761007d565b80636814b6d9146100825780636c3f9eff146100b25780639f9eac67146100e4575b600080fd5b61009c600480360381019061009791906108fb565b61019c565b6040516100a9919061094a565b60405180910390f35b6100cc60048036038101906100c791906109c3565b6101b2565b6040516100db93929190610aaa565b60405180910390f35b6100fe60048036038101906100f99190610c1d565b610291565b005b61011a60048036038101906101159190610c1d565b610342565b005b610124610594565b6040516101319190610de0565b60405180910390f35b610154600480360381019061014f9190610e02565b6106f6565b60405161016393929190610aaa565b60405180910390f35b61018660048036038101906101819190610c1d565b6107e5565b6040516101939190610e2f565b60405180910390f35b600081836101aa9190610e79565b905092915050565b60006020528060005260406000206000915090508060000160009054906101000a900473ffffffffffffffffffffffffffffffffffffffff16908060010180546101fb90610edc565b80601f016020809104026020016040519081016040528092919081815260200182805461022790610edc565b80156102745780601f1061024957610100808354040283529160200191610274565b820191906000526020600020905b81548152906001019060200180831161025757829003601f168201915b5050505050908060020160009054906101000a900460ff16905083565b600115156000803373ffffffffffffffffffffffffffffffffffffffff1673ffffffffffffffffffffffffffffffffffffffff16815260200190815260200160002060020160009054906101000a900460ff161515146102f057600080fd5b806000803373ffffffffffffffffffffffffffffffffffffffff1673ffffffffffffffffffffffffffffffffffffffff168152602001908152602001600020600101908161033e91906110b9565b5050565b600015156000803373ffffffffffffffffffffffffffffffffffffffff1673ffffffffffffffffffffffffffffffffffffffff16815260200190815260200160002060020160009054906101000a900460ff161515146103a157600080fd5b600073ffffffffffffffffffffffffffffffffffffffff166001826040516103c991906111c7565b908152602001604051809103902060009054906101000a900473ffffffffffffffffffffffffffffffffffffffff1673ffffffffffffffffffffffffffffffffffffffff161461041857600080fd5b6000610424823361082e565b9050600281908060018154018082558091505060019003906000526020600020906003020160009091909190915060008201518160000160006101000a81548173ffffffffffffffffffffffffffffffffffffffff021916908373ffffffffffffffffffffffffffffffffffffffff16021790555060208201518160010190816104ae91906110b9565b5060408201518160020160006101000a81548160ff0219169083151502179055505050806000803373ffffffffffffffffffffffffffffffffffffffff1673ffffffffffffffffffffffffffffffffffffffff16815260200190815260200160002060008201518160000160006101000a81548173ffffffffffffffffffffffffffffffffffffffff021916908373ffffffffffffffffffffffffffffffffffffffff160217905550602082015181600101908161056c91906110b9565b5060408201518160020160006101000a81548160ff0219169083151502179055509050505050565b60606002805480602002602001604051908101604052809291908181526020016000905b828210156106ed57838290600052602060002090600302016040518060600160405290816000820160009054906101000a900473ffffffffffffffffffffffffffffffffffffffff1673ffffffffffffffffffffffffffffffffffffffff1673ffffffffffffffffffffffffffffffffffffffff16815260200160018201805461064190610edc565b80601f016020809104026020016040519081016040528092919081815260200182805461066d90610edc565b80156106ba5780601f1061068f576101008083540402835291602001916106ba565b820191906000526020600020905b81548152906001019060200180831161069d57829003601f168201915b505050505081526020016002820160009054906101000a900460ff161515151581525050815260200190600101906105b8565b50505050905090565b6002818154811061070657600080fd5b90600052602060002090600302016000915090508060000160009054906101000a900473ffffffffffffffffffffffffffffffffffffffff169080600101805461074f90610edc565b80601f016020809104026020016040519081016040528092919081815260200182805461077b90610edc565b80156107c85780601f1061079d576101008083540402835291602001916107c8565b820191906000526020600020905b8154815290600101906020018083116107ab57829003601f168201915b5050505050908060020160009054906101000a900460ff16905083565b6001818051602081018201805184825260208301602085012081835280955050505050506000915054906101000a900473ffffffffffffffffffffffffffffffffffffffff1681565b610836610878565b600060405180606001604052808473ffffffffffffffffffffffffffffffffffffffff1681526020018581526020016001151581525090508091505092915050565b6040518060600160405280600073ffffffffffffffffffffffffffffffffffffffff168152602001606081526020016000151581525090565b6000604051905090565b600080fd5b600080fd5b6000819050919050565b6108d8816108c5565b81146108e357600080fd5b50565b6000813590506108f5816108cf565b92915050565b60008060408385031215610912576109116108bb565b5b6000610920858286016108e6565b9250506020610931858286016108e6565b9150509250929050565b610944816108c5565b82525050565b600060208201905061095f600083018461093b565b92915050565b600073ffffffffffffffffffffffffffffffffffffffff82169050919050565b600061099082610965565b9050919050565b6109a081610985565b81146109ab57600080fd5b50565b6000813590506109bd81610997565b92915050565b6000602082840312156109d9576109d86108bb565b5b60006109e7848285016109ae565b91505092915050565b6109f981610985565b82525050565b600081519050919050565b600082825260208201905092915050565b60005b83811015610a39578082015181840152602081019050610a1e565b60008484015250505050565b6000601f19601f8301169050919050565b6000610a61826109ff565b610a6b8185610a0a565b9350610a7b818560208601610a1b565b610a8481610a45565b840191505092915050565b60008115159050919050565b610aa481610a8f565b82525050565b6000606082019050610abf60008301866109f0565b8181036020830152610ad18185610a56565b9050610ae06040830184610a9b565b949350505050565b600080fd5b600080fd5b7f4e487b7100000000000000000000000000000000000000000000000000000000600052604160045260246000fd5b610b2a82610a45565b810181811067ffffffffffffffff82111715610b4957610b48610af2565b5b80604052505050565b6000610b5c6108b1565b9050610b688282610b21565b919050565b600067ffffffffffffffff821115610b8857610b87610af2565b5b610b9182610a45565b9050602081019050919050565b82818337600083830152505050565b6000610bc0610bbb84610b6d565b610b52565b905082815260208101848484011115610bdc57610bdb610aed565b5b610be7848285610b9e565b509392505050565b600082601f830112610c0457610c03610ae8565b5b8135610c14848260208601610bad565b91505092915050565b600060208284031215610c3357610c326108bb565b5b600082013567ffffffffffffffff811115610c5157610c506108c0565b5b610c5d84828501610bef565b91505092915050565b600081519050919050565b600082825260208201905092915050565b6000819050602082019050919050565b610c9b81610985565b82525050565b600082825260208201905092915050565b6000610cbd826109ff565b610cc78185610ca1565b9350610cd7818560208601610a1b565b610ce081610a45565b840191505092915050565b610cf481610a8f565b82525050565b6000606083016000830151610d126000860182610c92565b5060208301518482036020860152610d2a8282610cb2565b9150506040830151610d3f6040860182610ceb565b508091505092915050565b6000610d568383610cfa565b905092915050565b6000602082019050919050565b6000610d7682610c66565b610d808185610c71565b935083602082028501610d9285610c82565b8060005b85811015610dce5784840389528151610daf8582610d4a565b9450610dba83610d5e565b925060208a01995050600181019050610d96565b50829750879550505050505092915050565b60006020820190508181036000830152610dfa8184610d6b565b905092915050565b600060208284031215610e1857610e176108bb565b5b6000610e26848285016108e6565b91505092915050565b6000602082019050610e4460008301846109f0565b92915050565b7f4e487b7100000000000000000000000000000000000000000000000000000000600052601160045260246000fd5b6000610e84826108c5565b9150610e8f836108c5565b9250828201905080821115610ea757610ea6610e4a565b5b92915050565b7f4e487b7100000000000000000000000000000000000000000000000000000000600052602260045260246000fd5b60006002820490506001821680610ef457607f821691505b602082108103610f0757610f06610ead565b5b50919050565b60008190508160005260206000209050919050565b60006020601f8301049050919050565b600082821b905092915050565b600060088302610f6f7fffffffffffffffffffffffffffffffffffffffffffffffffffffffffffffffff82610f32565b610f798683610f32565b95508019841693508086168417925050509392505050565b6000819050919050565b6000610fb6610fb1610fac846108c5565b610f91565b6108c5565b9050919050565b6000819050919050565b610fd083610f9b565b610fe4610fdc82610fbd565b848454610f3f565b825550505050565b600090565b610ff9610fec565b611004818484610fc7565b505050565b5b818110156110285761101d600082610ff1565b60018101905061100a565b5050565b601f82111561106d5761103e81610f0d565b61104784610f22565b81016020851015611056578190505b61106a61106285610f22565b830182611009565b50505b505050565b600082821c905092915050565b600061109060001984600802611072565b1980831691505092915050565b60006110a9838361107f565b9150826002028217905092915050565b6110c2826109ff565b67ffffffffffffffff8111156110db576110da610af2565b5b6110e58254610edc565b6110f082828561102c565b600060209050601f8311600181146111235760008415611111578287015190505b61111b858261109d565b865550611183565b601f19841661113186610f0d565b60005b8281101561115957848901518255600182019150602085019450602081019050611134565b868310156111765784890151611172601f89168261107f565b8355505b6001600288020188555050505b505050505050565b600081905092915050565b60006111a1826109ff565b6111ab818561118b565b93506111bb818560208601610a1b565b80840191505092915050565b60006111d38284611196565b91508190509291505056fea2646970667358221220ee214da9bc67d72f670db38bf56740c0568775addff6fe08f150389f95fac99664736f6c63430008110033",
  "linkReferences": {},
  "deployedLinkReferences": {}
}